[
  [
    "from", [{
      "address": "qMXbL8Zqb463W9uDHt5EJbHPqyCn2ikUzQ",
      "txId": "a477af6b2667c29670467e4e0728b685ee07b240235771862318e29ddbe58458",
      "outputIndex": 0,
      "script": "OP_DUP OP_HASH160 20 0x88d9931ea73d60eaf7e5671efc0552b912911f2a OP_EQUALVERIFY OP_CHECKSIG",
      "satoshis": 1020000
    }],
    "to", ["qSUDWEu2vUtCJqFSXH9HjuUb7WyxHnCVpW", 1010000],
    "sign", ["cSBnVM4xvxarwGQuAfQFwqDg9k5tErHUHzgWsEfD4zdwUasvqRVY"],
    "serialize", "01000000015884e5db9de218238671572340b207ee85b628074e7e467096c267266baf77a4000000006a473044022057fe7978e97ce32ca474d56bc4265c8a779fea69c2298c0976062fa6e2bbf9b6022039a7cf0c7bbe9bea84a15b20387417afd30fbb7f951243d9de021c8d5370525801210223078d2942df62c45621d209fab84ea9a7a23346201b7727b9b45a29c4e76f5effffffff0150690f00000000001976a91461befeda92b10cd791e07440af87efcf052b8e9788ac00000000"
  ],
  [
    "from", [{
      "txid": "e42447187db5a29d6db161661e4bc66d61c3e499690fe5ea47f87b79ca573986",
      "vout": 1,
      "address": "qa2Agnh1HdDXDnv5AYS2UwVgJ3XxcKa5J6",
      "scriptPubKey": "76a914073b7eae2823efa349e3b9155b8a735526463a0f88ac",
      "amount": 0.01080000
    }],
    "to", ["qU4Eu5DVZpPGsqFjU3VCN4VgQ3mpzerXtQ", 500000],
    "to", ["qTSCDcWZX2spjnCrPiRNi7BgfpNShNrkvs", 570000],
    "sign", ["cSQUuwwJBAg6tYQhzqqLWW115D1s5KFZDyhCF2ffrnukZxMK6rNZ"],
    "serialize", "0100000001863957ca797bf847eae50f6999e4c3616dc64b1e6661b16d9da2b57d184724e4010000006a47304402200f6ba49a1152844463ca0b27562ab7c99498cb3c8564cc620fab02028f55420702205c5a6a95a1280ef2a2259fb295741ed952c50d5d3a7ca74a0e320f43b569eda70121039dd446bbc85db6917f39c0b4c295b0f8cce76d1926fa76d7b84e3f7ff1c5eec5ffffffff0220a10700000000001976a91473266d6943f8eb9cf45e79309deb9f575c5816e388ac90b20800000000001976a9146c55371f0c147fc947021b83eba071ad94aaeebd88ac00000000"
  ],
  [
    "from", [
      [{
        "txid": "a9db84566e0fc9351e86337d2828ab281b25ddc06fab798f6d4b5baef48c02b3",
        "vout": 0,
        "address": "qU4Eu5DVZpPGsqFjU3VCN4VgQ3mpzerXtQ",
        "account": "",
        "scriptPubKey": "76a91448c819246ae5645ceecd41fbe1aa6202a0a9b5ca88ac",
        "amount": 0.00500000,
        "confirmations": 0
      }, {
        "txid": "a9db84566e0fc9351e86337d2828ab281b25ddc06fab798f6d4b5baef48c02b3",
        "vout": 1,
        "address": "qTSCDcWZX2spjnCrPiRNi7BgfpNShNrkvs",
        "account": "",
        "scriptPubKey": "76a914aab76ba4877d696590d94ea3e02948b55294815188ac",
        "amount": 0.00570000,
        "confirmations": 0
      }]
    ],
    "to", ["qNdKCFFZmd6cdSmhLBusNbT9kir7nmEtyZ", 1060000],
    "sign", [
      ["cPGbA2C54ZZ1sw4dc2ckBE1WqkdrNSbEV8Tkjhi2p1J15oErdgP2", "cSpyve5bXAuyHrNeV9MjTdFz3HLw739yUjjUAUSMe3ppf2qzj2hw"]
    ],
    "serialize", "0100000002b3028cf4ae5b4b6d8f79ab6fc0dd251b28ab28287d33861e35c90f6e5684dba9000000006a473044022049e01bec31b478d18a4aa400184c172136c5bbb3151342569a42cb9131312f4c0220236cd2554a341dcb241a7acaaaf981d2881d9232b677e152d0f385a0fb1a686f0121030253c73236acf5ea9085d408220141197f6094de07426bd0d32c7a543614fdd7ffffffffb3028cf4ae5b4b6d8f79ab6fc0dd251b28ab28287d33861e35c90f6e5684dba9010000006a47304402202f3c93b85236b70ac73e933848ca4c9f415540d7c173c9733ebc8c38f6b5a454022072902cfb11f398a10e268dfc3c03590a7d76d777b5dd972a39db5533e11addfd012102977a001a0a7bbfd1f8a647c7d46e13e8f6920635b328390b43b3303977101149ffffffff01a02c1000000000001976a9143796fc515c15524137021b19246e25b29349585388ac00000000"
  ],
  [
    "from", [{
      "address": "qfGyt7vX14DgKRciqPQ7S3Acq8jwFLEwbH",
      "txid": "f50e13cecda9a438ebd7df213a2899e42b2461a18d4630ee773d26b4f2688bdc",
      "vout": 1,
      "scriptPubKey": "76a914089acaba6af8b2b4fb4bed3b747ab1e4e60b496588ac",
      "amount": 0.01
    }],
    "to", ["qgWRiGGxXo6EqmkkSQb13hCdecgKqVmvjw", 990000],
    "sign", ["cPwWtDztEgRCMCU8pMQp4HgphvyadrAsYBrCjXUZuDSmnZkyoyNF"],
    "serialize", "0100000001dc8b68f2b4263d77ee30468da161242be499283a21dfd7eb38a4a9cdce130ef5010000006a47304402203ff1e746f65bac3e766fed3dacc854c0b263a790105d50da05d9dabc8e5f5f1602200519929e183fe9c46d40936ff26399b1345200d9440b46108ef3fb936764d527012103e26b47e7c0d8946954bf9dd4bc7f9e415437eb98271d05f69e78cef8fc6c9a54ffffffff01301b0f00000000001976a914fbbbc7500bc8919d2950787107149510c7d2a95688ac00000000"
  ],
  [
    "from", [{
      "address":"545ghkjRZArEq3hU38HXzuFtK8z7xTC6iL","txid":"073281b2cc94e879aaf30ea2e92947d9827b270015849d3a5b96a89ee15bfa66","vout":0,"ts":1418877950,"scriptPubKey":"a91412a85d79f6c0350e9a3fa6a5421251e7a3e5199287","amount":0.00318512,"confirmationsFromCache":false
    }, ["032ef2e9e8e751e3602c5606bb26d43fcf20d596eafbb6b9294771a6efebdb1a33", "03516b475726868be7d5e431db2dec6947af5601b8673d29b04f698b02dff78d1b"], 2],
    "to", ["5DSW8TjowTuvKkYQCxmkJxunDwudbJ431B", 300299],
    "sign", [["XJDvLedJ6WC7tjkDbjxTNCoGYw8qinqVhX9Lu6pG7Q3qykqBQBnr", "XCxh2x3vBqMnJyFrrDJstcETUcf3tKQ4jtD1oTaCBpuKCPNhyd7a"]],
    "serialize", "010000000166fa5be19ea8965b3a9d841500277b82d94729e9a20ef3aa79e894ccb281320700000000da00483045022100f61dc250f07c09ab3d8655692aa5b9ae608b53c1cd7d2ca8968d1c1eb5a4b8a1022047e69d47e9a2b93112242935d7aba75a5e72a740acaaa2784a1e7c4b52b97c6301473044022061fd4be6f4712a11704663b756b418576f81ddf229e4e65ce6698258af9fd88b0220591465686104a6290447025390dca28e5b4951eabb9460a70876a9db0d246a5601475221032ef2e9e8e751e3602c5606bb26d43fcf20d596eafbb6b9294771a6efebdb1a332103516b475726868be7d5e431db2dec6947af5601b8673d29b04f698b02dff78d1b52aeffffffff010b9504000000000017a914795167d89ba3407eef458c5fc1417625cc41f3a08700000000"
  ]
]
